{
  "contractName": "ERC721Capped",
  "abi": [
    {
      "inputs": [
        {
          "internalType": "string",
          "name": "name_",
          "type": "string"
        },
        {
          "internalType": "string",
          "name": "symbol_",
          "type": "string"
        },
        {
          "internalType": "uint64",
          "name": "cap",
          "type": "uint64"
        }
      ],
      "stateMutability": "nonpayable",
      "type": "constructor"
    },
    {
      "anonymous": false,
      "inputs": [
        {
          "indexed": true,
          "internalType": "address",
          "name": "owner",
          "type": "address"
        },
        {
          "indexed": true,
          "internalType": "address",
          "name": "approved",
          "type": "address"
        },
        {
          "indexed": true,
          "internalType": "uint256",
          "name": "tokenId",
          "type": "uint256"
        }
      ],
      "name": "Approval",
      "type": "event"
    },
    {
      "anonymous": false,
      "inputs": [
        {
          "indexed": true,
          "internalType": "address",
          "name": "owner",
          "type": "address"
        },
        {
          "indexed": true,
          "internalType": "address",
          "name": "operator",
          "type": "address"
        },
        {
          "indexed": false,
          "internalType": "bool",
          "name": "approved",
          "type": "bool"
        }
      ],
      "name": "ApprovalForAll",
      "type": "event"
    },
    {
      "anonymous": false,
      "inputs": [
        {
          "indexed": true,
          "internalType": "address",
          "name": "previousOwner",
          "type": "address"
        },
        {
          "indexed": true,
          "internalType": "address",
          "name": "newOwner",
          "type": "address"
        }
      ],
      "name": "OwnershipTransferred",
      "type": "event"
    },
    {
      "anonymous": false,
      "inputs": [
        {
          "indexed": true,
          "internalType": "address",
          "name": "from",
          "type": "address"
        },
        {
          "indexed": true,
          "internalType": "address",
          "name": "to",
          "type": "address"
        },
        {
          "indexed": true,
          "internalType": "uint256",
          "name": "tokenId",
          "type": "uint256"
        }
      ],
      "name": "Transfer",
      "type": "event"
    },
    {
      "inputs": [
        {
          "internalType": "address",
          "name": "to",
          "type": "address"
        },
        {
          "internalType": "uint256",
          "name": "tokenId",
          "type": "uint256"
        }
      ],
      "name": "approve",
      "outputs": [],
      "stateMutability": "nonpayable",
      "type": "function"
    },
    {
      "inputs": [
        {
          "internalType": "address",
          "name": "owner",
          "type": "address"
        }
      ],
      "name": "balanceOf",
      "outputs": [
        {
          "internalType": "uint256",
          "name": "",
          "type": "uint256"
        }
      ],
      "stateMutability": "view",
      "type": "function",
      "constant": true
    },
    {
      "inputs": [
        {
          "internalType": "uint256",
          "name": "tokenId",
          "type": "uint256"
        }
      ],
      "name": "getApproved",
      "outputs": [
        {
          "internalType": "address",
          "name": "",
          "type": "address"
        }
      ],
      "stateMutability": "view",
      "type": "function",
      "constant": true
    },
    {
      "inputs": [
        {
          "internalType": "address",
          "name": "owner",
          "type": "address"
        },
        {
          "internalType": "address",
          "name": "operator",
          "type": "address"
        }
      ],
      "name": "isApprovedForAll",
      "outputs": [
        {
          "internalType": "bool",
          "name": "",
          "type": "bool"
        }
      ],
      "stateMutability": "view",
      "type": "function",
      "constant": true
    },
    {
      "inputs": [],
      "name": "name",
      "outputs": [
        {
          "internalType": "string",
          "name": "",
          "type": "string"
        }
      ],
      "stateMutability": "view",
      "type": "function",
      "constant": true
    },
    {
      "inputs": [],
      "name": "owner",
      "outputs": [
        {
          "internalType": "address",
          "name": "",
          "type": "address"
        }
      ],
      "stateMutability": "view",
      "type": "function",
      "constant": true
    },
    {
      "inputs": [
        {
          "internalType": "uint256",
          "name": "tokenId",
          "type": "uint256"
        }
      ],
      "name": "ownerOf",
      "outputs": [
        {
          "internalType": "address",
          "name": "",
          "type": "address"
        }
      ],
      "stateMutability": "view",
      "type": "function",
      "constant": true
    },
    {
      "inputs": [],
      "name": "renounceOwnership",
      "outputs": [],
      "stateMutability": "nonpayable",
      "type": "function"
    },
    {
      "inputs": [
        {
          "internalType": "address",
          "name": "from",
          "type": "address"
        },
        {
          "internalType": "address",
          "name": "to",
          "type": "address"
        },
        {
          "internalType": "uint256",
          "name": "tokenId",
          "type": "uint256"
        }
      ],
      "name": "safeTransferFrom",
      "outputs": [],
      "stateMutability": "nonpayable",
      "type": "function"
    },
    {
      "inputs": [
        {
          "internalType": "address",
          "name": "from",
          "type": "address"
        },
        {
          "internalType": "address",
          "name": "to",
          "type": "address"
        },
        {
          "internalType": "uint256",
          "name": "tokenId",
          "type": "uint256"
        },
        {
          "internalType": "bytes",
          "name": "_data",
          "type": "bytes"
        }
      ],
      "name": "safeTransferFrom",
      "outputs": [],
      "stateMutability": "nonpayable",
      "type": "function"
    },
    {
      "inputs": [
        {
          "internalType": "address",
          "name": "operator",
          "type": "address"
        },
        {
          "internalType": "bool",
          "name": "approved",
          "type": "bool"
        }
      ],
      "name": "setApprovalForAll",
      "outputs": [],
      "stateMutability": "nonpayable",
      "type": "function"
    },
    {
      "inputs": [
        {
          "internalType": "bytes4",
          "name": "interfaceId",
          "type": "bytes4"
        }
      ],
      "name": "supportsInterface",
      "outputs": [
        {
          "internalType": "bool",
          "name": "",
          "type": "bool"
        }
      ],
      "stateMutability": "view",
      "type": "function",
      "constant": true
    },
    {
      "inputs": [],
      "name": "symbol",
      "outputs": [
        {
          "internalType": "string",
          "name": "",
          "type": "string"
        }
      ],
      "stateMutability": "view",
      "type": "function",
      "constant": true
    },
    {
      "inputs": [
        {
          "internalType": "uint256",
          "name": "tokenId",
          "type": "uint256"
        }
      ],
      "name": "tokenURI",
      "outputs": [
        {
          "internalType": "string",
          "name": "",
          "type": "string"
        }
      ],
      "stateMutability": "view",
      "type": "function",
      "constant": true
    },
    {
      "inputs": [
        {
          "internalType": "address",
          "name": "from",
          "type": "address"
        },
        {
          "internalType": "address",
          "name": "to",
          "type": "address"
        },
        {
          "internalType": "uint256",
          "name": "tokenId",
          "type": "uint256"
        }
      ],
      "name": "transferFrom",
      "outputs": [],
      "stateMutability": "nonpayable",
      "type": "function"
    },
    {
      "inputs": [
        {
          "internalType": "address",
          "name": "newOwner",
          "type": "address"
        }
      ],
      "name": "transferOwnership",
      "outputs": [],
      "stateMutability": "nonpayable",
      "type": "function"
    },
    {
      "inputs": [],
      "name": "getTotalSupply",
      "outputs": [
        {
          "internalType": "uint64",
          "name": "",
          "type": "uint64"
        }
      ],
      "stateMutability": "view",
      "type": "function",
      "constant": true
    },
    {
      "inputs": [],
      "name": "getBalance",
      "outputs": [
        {
          "internalType": "uint256",
          "name": "",
          "type": "uint256"
        }
      ],
      "stateMutability": "view",
      "type": "function",
      "constant": true
    },
    {
      "inputs": [],
      "name": "ownerMint",
      "outputs": [],
      "stateMutability": "nonpayable",
      "type": "function"
    },
    {
      "inputs": [],
      "name": "getMintPrice",
      "outputs": [
        {
          "internalType": "uint256",
          "name": "",
          "type": "uint256"
        }
      ],
      "stateMutability": "view",
      "type": "function",
      "constant": true
    },
    {
      "inputs": [],
      "name": "publicMint",
      "outputs": [],
      "stateMutability": "payable",
      "type": "function",
      "payable": true
    },
    {
      "inputs": [
        {
          "internalType": "uint256",
          "name": "mintPrice",
          "type": "uint256"
        }
      ],
      "name": "setMintPrice",
      "outputs": [],
      "stateMutability": "nonpayable",
      "type": "function"
    },
    {
      "inputs": [
        {
          "internalType": "uint256",
          "name": "mintPrice",
          "type": "uint256"
        }
      ],
      "name": "openSales",
      "outputs": [],
      "stateMutability": "nonpayable",
      "type": "function"
    },
    {
      "inputs": [],
      "name": "closeSales",
      "outputs": [],
      "stateMutability": "nonpayable",
      "type": "function"
    },
    {
      "inputs": [],
      "name": "withdraw",
      "outputs": [],
      "stateMutability": "payable",
      "type": "function",
      "payable": true
    }
  ],
  "bytecode": "0x60806040523480156200001157600080fd5b50604051620036f5380380620036f58339818101604052810190620000379190620002c6565b82828160009080519060200190620000519291906200018d565b5080600190805190602001906200006a9291906200018d565b5050506200008d62000081620000bf60201b60201c565b620000c760201b60201c565b80600860006101000a81548167ffffffffffffffff021916908367ffffffffffffffff160217905550505050620004ec565b600033905090565b6000600660009054906101000a900473ffffffffffffffffffffffffffffffffffffffff16905081600660006101000a81548173ffffffffffffffffffffffffffffffffffffffff021916908373ffffffffffffffffffffffffffffffffffffffff1602179055508173ffffffffffffffffffffffffffffffffffffffff168173ffffffffffffffffffffffffffffffffffffffff167f8be0079c531659141344cd1fd0a4f28419497f9722a3daafe3b4186f6b6457e060405160405180910390a35050565b8280546200019b90620003f7565b90600052602060002090601f016020900481019282620001bf57600085556200020b565b82601f10620001da57805160ff19168380011785556200020b565b828001600101855582156200020b579182015b828111156200020a578251825591602001919060010190620001ed565b5b5090506200021a91906200021e565b5090565b5b80821115620002395760008160009055506001016200021f565b5090565b6000620002546200024e8462000377565b6200034e565b9050828152602081018484840111156200026d57600080fd5b6200027a848285620003c1565b509392505050565b600082601f8301126200029457600080fd5b8151620002a68482602086016200023d565b91505092915050565b600081519050620002c081620004d2565b92915050565b600080600060608486031215620002dc57600080fd5b600084015167ffffffffffffffff811115620002f757600080fd5b620003058682870162000282565b935050602084015167ffffffffffffffff8111156200032357600080fd5b620003318682870162000282565b92505060406200034486828701620002af565b9150509250925092565b60006200035a6200036d565b90506200036882826200042d565b919050565b6000604051905090565b600067ffffffffffffffff82111562000395576200039462000492565b5b620003a082620004c1565b9050602081019050919050565b600067ffffffffffffffff82169050919050565b60005b83811015620003e1578082015181840152602081019050620003c4565b83811115620003f1576000848401525b50505050565b600060028204905060018216806200041057607f821691505b6020821081141562000427576200042662000463565b5b50919050565b6200043882620004c1565b810181811067ffffffffffffffff821117156200045a576200045962000492565b5b80604052505050565b7f4e487b7100000000000000000000000000000000000000000000000000000000600052602260045260246000fd5b7f4e487b7100000000000000000000000000000000000000000000000000000000600052604160045260246000fd5b6000601f19601f8301169050919050565b620004dd81620003ad565b8114620004e957600080fd5b50565b6131f980620004fc6000396000f3fe6080604052600436106101665760003560e01c8063715018a6116100d1578063b88d4fde1161008a578063dd3691e611610064578063dd3691e6146104c4578063e985e9c5146104ed578063f2fde38b1461052a578063f4a0a5281461055357610166565b8063b88d4fde14610433578063c4e41b221461045c578063c87b56dd1461048757610166565b8063715018a61461035b5780638da5cb5b1461037257806395d89b411461039d578063a22cb465146103c8578063a7f93ebd146103f1578063b12dc9911461041c57610166565b806323b872dd1161012357806323b872dd1461027b57806326092b83146102a45780633ccfd60b146102ae57806342842e0e146102b85780636352211e146102e157806370a082311461031e57610166565b806301ffc9a71461016b57806306fdde03146101a8578063081812fc146101d3578063095ea7b31461021057806312065fe01461023957806315a8f07314610264575b600080fd5b34801561017757600080fd5b50610192600480360381019061018d9190612222565b61057c565b60405161019f919061265a565b60405180910390f35b3480156101b457600080fd5b506101bd61065e565b6040516101ca9190612675565b60405180910390f35b3480156101df57600080fd5b506101fa60048036038101906101f59190612274565b6106f0565b60405161020791906125f3565b60405180910390f35b34801561021c57600080fd5b50610237600480360381019061023291906121e6565b610775565b005b34801561024557600080fd5b5061024e61088d565b60405161025b91906128b7565b60405180910390f35b34801561027057600080fd5b50610279610895565b005b34801561028757600080fd5b506102a2600480360381019061029d91906120e0565b61092e565b005b6102ac61098e565b005b6102b66109be565b005b3480156102c457600080fd5b506102df60048036038101906102da91906120e0565b610a91565b005b3480156102ed57600080fd5b5061030860048036038101906103039190612274565b610ab1565b60405161031591906125f3565b60405180910390f35b34801561032a57600080fd5b506103456004803603810190610340919061207b565b610b63565b60405161035291906128b7565b60405180910390f35b34801561036757600080fd5b50610370610c1b565b005b34801561037e57600080fd5b50610387610ca3565b60405161039491906125f3565b60405180910390f35b3480156103a957600080fd5b506103b2610ccd565b6040516103bf9190612675565b60405180910390f35b3480156103d457600080fd5b506103ef60048036038101906103ea91906121aa565b610d5f565b005b3480156103fd57600080fd5b50610406610d75565b60405161041391906128b7565b60405180910390f35b34801561042857600080fd5b50610431610d7f565b005b34801561043f57600080fd5b5061045a6004803603810190610455919061212f565b610e05565b005b34801561046857600080fd5b50610471610e67565b60405161047e91906128d2565b60405180910390f35b34801561049357600080fd5b506104ae60048036038101906104a99190612274565b610e85565b6040516104bb9190612675565b60405180910390f35b3480156104d057600080fd5b506104eb60048036038101906104e69190612274565b610f2c565b005b3480156104f957600080fd5b50610514600480360381019061050f91906120a4565b610fcf565b604051610521919061265a565b60405180910390f35b34801561053657600080fd5b50610551600480360381019061054c919061207b565b611063565b005b34801561055f57600080fd5b5061057a60048036038101906105759190612274565b61115b565b005b60007f80ac58cd000000000000000000000000000000000000000000000000000000007bffffffffffffffffffffffffffffffffffffffffffffffffffffffff1916827bffffffffffffffffffffffffffffffffffffffffffffffffffffffff1916148061064757507f5b5e139f000000000000000000000000000000000000000000000000000000007bffffffffffffffffffffffffffffffffffffffffffffffffffffffff1916827bffffffffffffffffffffffffffffffffffffffffffffffffffffffff1916145b806106575750610656826111e1565b5b9050919050565b60606000805461066d90612b0b565b80601f016020809104026020016040519081016040528092919081815260200182805461069990612b0b565b80156106e65780601f106106bb576101008083540402835291602001916106e6565b820191906000526020600020905b8154815290600101906020018083116106c957829003601f168201915b5050505050905090565b60006106fb8261124b565b61073a576040517f08c379a000000000000000000000000000000000000000000000000000000000815260040161073190612817565b60405180910390fd5b6004600083815260200190815260200160002060009054906101000a900473ffffffffffffffffffffffffffffffffffffffff169050919050565b600061078082610ab1565b90508073ffffffffffffffffffffffffffffffffffffffff168373ffffffffffffffffffffffffffffffffffffffff1614156107f1576040517f08c379a00000000000000000000000000000000000000000000000000000000081526004016107e890612877565b60405180910390fd5b8073ffffffffffffffffffffffffffffffffffffffff166108106112b7565b73ffffffffffffffffffffffffffffffffffffffff16148061083f575061083e816108396112b7565b610fcf565b5b61087e576040517f08c379a000000000000000000000000000000000000000000000000000000000815260040161087590612797565b60405180910390fd5b61088883836112bf565b505050565b600047905090565b61089d6112b7565b73ffffffffffffffffffffffffffffffffffffffff166108bb610ca3565b73ffffffffffffffffffffffffffffffffffffffff1614610911576040517f08c379a000000000000000000000000000000000000000000000000000000000815260040161090890612837565b60405180910390fd5b60006006601c6101000a81548160ff021916908315150217905550565b61093f6109396112b7565b82611378565b61097e576040517f08c379a000000000000000000000000000000000000000000000000000000000815260040161097590612897565b60405180910390fd5b610989838383611456565b505050565b6006601c9054906101000a900460ff1680156109ab575060075434145b6109b457600080fd5b6109bc6116bd565b565b6109c66112b7565b73ffffffffffffffffffffffffffffffffffffffff166109e4610ca3565b73ffffffffffffffffffffffffffffffffffffffff1614610a3a576040517f08c379a0000000000000000000000000000000000000000000000000000000008152600401610a3190612837565b60405180910390fd5b610a42610ca3565b73ffffffffffffffffffffffffffffffffffffffff166108fc610a6361088d565b9081150290604051600060405180830381858888f19350505050158015610a8e573d6000803e3d6000fd5b50565b610aac83838360405180602001604052806000815250610e05565b505050565b6000806002600084815260200190815260200160002060009054906101000a900473ffffffffffffffffffffffffffffffffffffffff169050600073ffffffffffffffffffffffffffffffffffffffff168173ffffffffffffffffffffffffffffffffffffffff161415610b5a576040517f08c379a0000000000000000000000000000000000000000000000000000000008152600401610b51906127d7565b60405180910390fd5b80915050919050565b60008073ffffffffffffffffffffffffffffffffffffffff168273ffffffffffffffffffffffffffffffffffffffff161415610bd4576040517f08c379a0000000000000000000000000000000000000000000000000000000008152600401610bcb906127b7565b60405180910390fd5b600360008373ffffffffffffffffffffffffffffffffffffffff1673ffffffffffffffffffffffffffffffffffffffff168152602001908152602001600020549050919050565b610c236112b7565b73ffffffffffffffffffffffffffffffffffffffff16610c41610ca3565b73ffffffffffffffffffffffffffffffffffffffff1614610c97576040517f08c379a0000000000000000000000000000000000000000000000000000000008152600401610c8e90612837565b60405180910390fd5b610ca160006117b9565b565b6000600660009054906101000a900473ffffffffffffffffffffffffffffffffffffffff16905090565b606060018054610cdc90612b0b565b80601f0160208091040260200160405190810160405280929190818152602001828054610d0890612b0b565b8015610d555780601f10610d2a57610100808354040283529160200191610d55565b820191906000526020600020905b815481529060010190602001808311610d3857829003601f168201915b5050505050905090565b610d71610d6a6112b7565b838361187f565b5050565b6000600754905090565b610d876112b7565b73ffffffffffffffffffffffffffffffffffffffff16610da5610ca3565b73ffffffffffffffffffffffffffffffffffffffff1614610dfb576040517f08c379a0000000000000000000000000000000000000000000000000000000008152600401610df290612837565b60405180910390fd5b610e036116bd565b565b610e16610e106112b7565b83611378565b610e55576040517f08c379a0000000000000000000000000000000000000000000000000000000008152600401610e4c90612897565b60405180910390fd5b610e61848484846119ec565b50505050565b6000600660149054906101000a900467ffffffffffffffff16905090565b6060610e908261124b565b610ecf576040517f08c379a0000000000000000000000000000000000000000000000000000000008152600401610ec690612857565b60405180910390fd5b6000610ed9611a48565b90506000815111610ef95760405180602001604052806000815250610f24565b80610f0384611a5f565b604051602001610f149291906125cf565b6040516020818303038152906040525b915050919050565b610f346112b7565b73ffffffffffffffffffffffffffffffffffffffff16610f52610ca3565b73ffffffffffffffffffffffffffffffffffffffff1614610fa8576040517f08c379a0000000000000000000000000000000000000000000000000000000008152600401610f9f90612837565b60405180910390fd5b60016006601c6101000a81548160ff021916908315150217905550610fcc8161115b565b50565b6000600560008473ffffffffffffffffffffffffffffffffffffffff1673ffffffffffffffffffffffffffffffffffffffff16815260200190815260200160002060008373ffffffffffffffffffffffffffffffffffffffff1673ffffffffffffffffffffffffffffffffffffffff16815260200190815260200160002060009054906101000a900460ff16905092915050565b61106b6112b7565b73ffffffffffffffffffffffffffffffffffffffff16611089610ca3565b73ffffffffffffffffffffffffffffffffffffffff16146110df576040517f08c379a00000000000000000000000000000000000000000000000000000000081526004016110d690612837565b60405180910390fd5b600073ffffffffffffffffffffffffffffffffffffffff168173ffffffffffffffffffffffffffffffffffffffff16141561114f576040517f08c379a0000000000000000000000000000000000000000000000000000000008152600401611146906126b7565b60405180910390fd5b611158816117b9565b50565b6111636112b7565b73ffffffffffffffffffffffffffffffffffffffff16611181610ca3565b73ffffffffffffffffffffffffffffffffffffffff16146111d7576040517f08c379a00000000000000000000000000000000000000000000000000000000081526004016111ce90612837565b60405180910390fd5b8060078190555050565b60007f01ffc9a7000000000000000000000000000000000000000000000000000000007bffffffffffffffffffffffffffffffffffffffffffffffffffffffff1916827bffffffffffffffffffffffffffffffffffffffffffffffffffffffff1916149050919050565b60008073ffffffffffffffffffffffffffffffffffffffff166002600084815260200190815260200160002060009054906101000a900473ffffffffffffffffffffffffffffffffffffffff1673ffffffffffffffffffffffffffffffffffffffff1614159050919050565b600033905090565b816004600083815260200190815260200160002060006101000a81548173ffffffffffffffffffffffffffffffffffffffff021916908373ffffffffffffffffffffffffffffffffffffffff160217905550808273ffffffffffffffffffffffffffffffffffffffff1661133283610ab1565b73ffffffffffffffffffffffffffffffffffffffff167f8c5be1e5ebec7d5bd14f71427d1e84f3dd0314c0f7b2291e5b200ac8c7c3b92560405160405180910390a45050565b60006113838261124b565b6113c2576040517f08c379a00000000000000000000000000000000000000000000000000000000081526004016113b990612757565b60405180910390fd5b60006113cd83610ab1565b90508073ffffffffffffffffffffffffffffffffffffffff168473ffffffffffffffffffffffffffffffffffffffff16148061143c57508373ffffffffffffffffffffffffffffffffffffffff16611424846106f0565b73ffffffffffffffffffffffffffffffffffffffff16145b8061144d575061144c8185610fcf565b5b91505092915050565b8273ffffffffffffffffffffffffffffffffffffffff1661147682610ab1565b73ffffffffffffffffffffffffffffffffffffffff16146114cc576040517f08c379a00000000000000000000000000000000000000000000000000000000081526004016114c3906126d7565b60405180910390fd5b600073ffffffffffffffffffffffffffffffffffffffff168273ffffffffffffffffffffffffffffffffffffffff16141561153c576040517f08c379a000000000000000000000000000000000000000000000000000000000815260040161153390612717565b60405180910390fd5b611547838383611c0c565b6115526000826112bf565b6001600360008573ffffffffffffffffffffffffffffffffffffffff1673ffffffffffffffffffffffffffffffffffffffff16815260200190815260200160002060008282546115a29190612a0d565b925050819055506001600360008473ffffffffffffffffffffffffffffffffffffffff1673ffffffffffffffffffffffffffffffffffffffff16815260200190815260200160002060008282546115f99190612986565b92505081905550816002600083815260200190815260200160002060006101000a81548173ffffffffffffffffffffffffffffffffffffffff021916908373ffffffffffffffffffffffffffffffffffffffff160217905550808273ffffffffffffffffffffffffffffffffffffffff168473ffffffffffffffffffffffffffffffffffffffff167fddf252ad1be2c89b69c2b068fc378daa952ba7f163c4a11628f55a4df523b3ef60405160405180910390a46116b8838383611c11565b505050565b600860009054906101000a900467ffffffffffffffff1667ffffffffffffffff16600660149054906101000a900467ffffffffffffffff1667ffffffffffffffff161115611740576040517f08c379a000000000000000000000000000000000000000000000000000000000815260040161173790612777565b60405180910390fd5b6006601481819054906101000a900467ffffffffffffffff168092919061176690612bb7565b91906101000a81548167ffffffffffffffff021916908367ffffffffffffffff160217905550506117b733600660149054906101000a900467ffffffffffffffff1667ffffffffffffffff16611c16565b565b6000600660009054906101000a900473ffffffffffffffffffffffffffffffffffffffff16905081600660006101000a81548173ffffffffffffffffffffffffffffffffffffffff021916908373ffffffffffffffffffffffffffffffffffffffff1602179055508173ffffffffffffffffffffffffffffffffffffffff168173ffffffffffffffffffffffffffffffffffffffff167f8be0079c531659141344cd1fd0a4f28419497f9722a3daafe3b4186f6b6457e060405160405180910390a35050565b8173ffffffffffffffffffffffffffffffffffffffff168373ffffffffffffffffffffffffffffffffffffffff1614156118ee576040517f08c379a00000000000000000000000000000000000000000000000000000000081526004016118e590612737565b60405180910390fd5b80600560008573ffffffffffffffffffffffffffffffffffffffff1673ffffffffffffffffffffffffffffffffffffffff16815260200190815260200160002060008473ffffffffffffffffffffffffffffffffffffffff1673ffffffffffffffffffffffffffffffffffffffff16815260200190815260200160002060006101000a81548160ff0219169083151502179055508173ffffffffffffffffffffffffffffffffffffffff168373ffffffffffffffffffffffffffffffffffffffff167f17307eab39ab6107e8899845ad3d59bd9653f200f220920489ca2b5937696c31836040516119df919061265a565b60405180910390a3505050565b6119f7848484611456565b611a0384848484611df0565b611a42576040517f08c379a0000000000000000000000000000000000000000000000000000000008152600401611a3990612697565b60405180910390fd5b50505050565b606060405180602001604052806000815250905090565b60606000821415611aa7576040518060400160405280600181526020017f30000000000000000000000000000000000000000000000000000000000000008152509050611c07565b600082905060005b60008214611ad9578080611ac290612b6e565b915050600a82611ad291906129dc565b9150611aaf565b60008167ffffffffffffffff811115611b1b577f4e487b7100000000000000000000000000000000000000000000000000000000600052604160045260246000fd5b6040519080825280601f01601f191660200182016040528015611b4d5781602001600182028036833780820191505090505b5090505b60008514611c0057600182611b669190612a0d565b9150600a85611b759190612be8565b6030611b819190612986565b60f81b818381518110611bbd577f4e487b7100000000000000000000000000000000000000000000000000000000600052603260045260246000fd5b60200101907effffffffffffffffffffffffffffffffffffffffffffffffffffffffffffff1916908160001a905350600a85611bf991906129dc565b9450611b51565b8093505050505b919050565b505050565b505050565b600073ffffffffffffffffffffffffffffffffffffffff168273ffffffffffffffffffffffffffffffffffffffff161415611c86576040517f08c379a0000000000000000000000000000000000000000000000000000000008152600401611c7d906127f7565b60405180910390fd5b611c8f8161124b565b15611ccf576040517f08c379a0000000000000000000000000000000000000000000000000000000008152600401611cc6906126f7565b60405180910390fd5b611cdb60008383611c0c565b6001600360008473ffffffffffffffffffffffffffffffffffffffff1673ffffffffffffffffffffffffffffffffffffffff1681526020019081526020016000206000828254611d2b9190612986565b92505081905550816002600083815260200190815260200160002060006101000a81548173ffffffffffffffffffffffffffffffffffffffff021916908373ffffffffffffffffffffffffffffffffffffffff160217905550808273ffffffffffffffffffffffffffffffffffffffff16600073ffffffffffffffffffffffffffffffffffffffff167fddf252ad1be2c89b69c2b068fc378daa952ba7f163c4a11628f55a4df523b3ef60405160405180910390a4611dec60008383611c11565b5050565b6000611e118473ffffffffffffffffffffffffffffffffffffffff16611f87565b15611f7a578373ffffffffffffffffffffffffffffffffffffffff1663150b7a02611e3a6112b7565b8786866040518563ffffffff1660e01b8152600401611e5c949392919061260e565b602060405180830381600087803b158015611e7657600080fd5b505af1925050508015611ea757506040513d601f19601f82011682018060405250810190611ea4919061224b565b60015b611f2a573d8060008114611ed7576040519150601f19603f3d011682016040523d82523d6000602084013e611edc565b606091505b50600081511415611f22576040517f08c379a0000000000000000000000000000000000000000000000000000000008152600401611f1990612697565b60405180910390fd5b805181602001fd5b63150b7a0260e01b7bffffffffffffffffffffffffffffffffffffffffffffffffffffffff1916817bffffffffffffffffffffffffffffffffffffffffffffffffffffffff191614915050611f7f565b600190505b949350505050565b6000808273ffffffffffffffffffffffffffffffffffffffff163b119050919050565b6000611fbd611fb884612912565b6128ed565b905082815260208101848484011115611fd557600080fd5b611fe0848285612ac9565b509392505050565b600081359050611ff781613167565b92915050565b60008135905061200c8161317e565b92915050565b60008135905061202181613195565b92915050565b60008151905061203681613195565b92915050565b600082601f83011261204d57600080fd5b813561205d848260208601611faa565b91505092915050565b600081359050612075816131ac565b92915050565b60006020828403121561208d57600080fd5b600061209b84828501611fe8565b91505092915050565b600080604083850312156120b757600080fd5b60006120c585828601611fe8565b92505060206120d685828601611fe8565b9150509250929050565b6000806000606084860312156120f557600080fd5b600061210386828701611fe8565b935050602061211486828701611fe8565b925050604061212586828701612066565b9150509250925092565b6000806000806080858703121561214557600080fd5b600061215387828801611fe8565b945050602061216487828801611fe8565b935050604061217587828801612066565b925050606085013567ffffffffffffffff81111561219257600080fd5b61219e8782880161203c565b91505092959194509250565b600080604083850312156121bd57600080fd5b60006121cb85828601611fe8565b92505060206121dc85828601611ffd565b9150509250929050565b600080604083850312156121f957600080fd5b600061220785828601611fe8565b925050602061221885828601612066565b9150509250929050565b60006020828403121561223457600080fd5b600061224284828501612012565b91505092915050565b60006020828403121561225d57600080fd5b600061226b84828501612027565b91505092915050565b60006020828403121561228657600080fd5b600061229484828501612066565b91505092915050565b6122a681612a41565b82525050565b6122b581612a53565b82525050565b60006122c682612943565b6122d08185612959565b93506122e0818560208601612ad8565b6122e981612cd5565b840191505092915050565b60006122ff8261294e565b612309818561296a565b9350612319818560208601612ad8565b61232281612cd5565b840191505092915050565b60006123388261294e565b612342818561297b565b9350612352818560208601612ad8565b80840191505092915050565b600061236b60328361296a565b915061237682612ce6565b604082019050919050565b600061238e60268361296a565b915061239982612d35565b604082019050919050565b60006123b160258361296a565b91506123bc82612d84565b604082019050919050565b60006123d4601c8361296a565b91506123df82612dd3565b602082019050919050565b60006123f760248361296a565b915061240282612dfc565b604082019050919050565b600061241a60198361296a565b915061242582612e4b565b602082019050919050565b600061243d602c8361296a565b915061244882612e74565b604082019050919050565b6000612460600e8361296a565b915061246b82612ec3565b602082019050919050565b600061248360388361296a565b915061248e82612eec565b604082019050919050565b60006124a6602a8361296a565b91506124b182612f3b565b604082019050919050565b60006124c960298361296a565b91506124d482612f8a565b604082019050919050565b60006124ec60208361296a565b91506124f782612fd9565b602082019050919050565b600061250f602c8361296a565b915061251a82613002565b604082019050919050565b600061253260208361296a565b915061253d82613051565b602082019050919050565b6000612555602f8361296a565b91506125608261307a565b604082019050919050565b600061257860218361296a565b9150612583826130c9565b604082019050919050565b600061259b60318361296a565b91506125a682613118565b604082019050919050565b6125ba81612aab565b82525050565b6125c981612ab5565b82525050565b60006125db828561232d565b91506125e7828461232d565b91508190509392505050565b6000602082019050612608600083018461229d565b92915050565b6000608082019050612623600083018761229d565b612630602083018661229d565b61263d60408301856125b1565b818103606083015261264f81846122bb565b905095945050505050565b600060208201905061266f60008301846122ac565b92915050565b6000602082019050818103600083015261268f81846122f4565b905092915050565b600060208201905081810360008301526126b08161235e565b9050919050565b600060208201905081810360008301526126d081612381565b9050919050565b600060208201905081810360008301526126f0816123a4565b9050919050565b60006020820190508181036000830152612710816123c7565b9050919050565b60006020820190508181036000830152612730816123ea565b9050919050565b600060208201905081810360008301526127508161240d565b9050919050565b6000602082019050818103600083015261277081612430565b9050919050565b6000602082019050818103600083015261279081612453565b9050919050565b600060208201905081810360008301526127b081612476565b9050919050565b600060208201905081810360008301526127d081612499565b9050919050565b600060208201905081810360008301526127f0816124bc565b9050919050565b60006020820190508181036000830152612810816124df565b9050919050565b6000602082019050818103600083015261283081612502565b9050919050565b6000602082019050818103600083015261285081612525565b9050919050565b6000602082019050818103600083015261287081612548565b9050919050565b600060208201905081810360008301526128908161256b565b9050919050565b600060208201905081810360008301526128b08161258e565b9050919050565b60006020820190506128cc60008301846125b1565b92915050565b60006020820190506128e760008301846125c0565b92915050565b60006128f7612908565b90506129038282612b3d565b919050565b6000604051905090565b600067ffffffffffffffff82111561292d5761292c612ca6565b5b61293682612cd5565b9050602081019050919050565b600081519050919050565b600081519050919050565b600082825260208201905092915050565b600082825260208201905092915050565b600081905092915050565b600061299182612aab565b915061299c83612aab565b9250827fffffffffffffffffffffffffffffffffffffffffffffffffffffffffffffffff038211156129d1576129d0612c19565b5b828201905092915050565b60006129e782612aab565b91506129f283612aab565b925082612a0257612a01612c48565b5b828204905092915050565b6000612a1882612aab565b9150612a2383612aab565b925082821015612a3657612a35612c19565b5b828203905092915050565b6000612a4c82612a8b565b9050919050565b60008115159050919050565b60007fffffffff0000000000000000000000000000000000000000000000000000000082169050919050565b600073ffffffffffffffffffffffffffffffffffffffff82169050919050565b6000819050919050565b600067ffffffffffffffff82169050919050565b82818337600083830152505050565b60005b83811015612af6578082015181840152602081019050612adb565b83811115612b05576000848401525b50505050565b60006002820490506001821680612b2357607f821691505b60208210811415612b3757612b36612c77565b5b50919050565b612b4682612cd5565b810181811067ffffffffffffffff82111715612b6557612b64612ca6565b5b80604052505050565b6000612b7982612aab565b91507fffffffffffffffffffffffffffffffffffffffffffffffffffffffffffffffff821415612bac57612bab612c19565b5b600182019050919050565b6000612bc282612ab5565b915067ffffffffffffffff821415612bdd57612bdc612c19565b5b600182019050919050565b6000612bf382612aab565b9150612bfe83612aab565b925082612c0e57612c0d612c48565b5b828206905092915050565b7f4e487b7100000000000000000000000000000000000000000000000000000000600052601160045260246000fd5b7f4e487b7100000000000000000000000000000000000000000000000000000000600052601260045260246000fd5b7f4e487b7100000000000000000000000000000000000000000000000000000000600052602260045260246000fd5b7f4e487b7100000000000000000000000000000000000000000000000000000000600052604160045260246000fd5b6000601f19601f8301169050919050565b7f4552433732313a207472616e7366657220746f206e6f6e20455243373231526560008201527f63656976657220696d706c656d656e7465720000000000000000000000000000602082015250565b7f4f776e61626c653a206e6577206f776e657220697320746865207a65726f206160008201527f6464726573730000000000000000000000000000000000000000000000000000602082015250565b7f4552433732313a207472616e736665722066726f6d20696e636f72726563742060008201527f6f776e6572000000000000000000000000000000000000000000000000000000602082015250565b7f4552433732313a20746f6b656e20616c7265616479206d696e74656400000000600082015250565b7f4552433732313a207472616e7366657220746f20746865207a65726f2061646460008201527f7265737300000000000000000000000000000000000000000000000000000000602082015250565b7f4552433732313a20617070726f766520746f2063616c6c657200000000000000600082015250565b7f4552433732313a206f70657261746f7220717565727920666f72206e6f6e657860008201527f697374656e7420746f6b656e0000000000000000000000000000000000000000602082015250565b7f457863656565646564206361702e000000000000000000000000000000000000600082015250565b7f4552433732313a20617070726f76652063616c6c6572206973206e6f74206f7760008201527f6e6572206e6f7220617070726f76656420666f7220616c6c0000000000000000602082015250565b7f4552433732313a2062616c616e636520717565727920666f7220746865207a6560008201527f726f206164647265737300000000000000000000000000000000000000000000602082015250565b7f4552433732313a206f776e657220717565727920666f72206e6f6e657869737460008201527f656e7420746f6b656e0000000000000000000000000000000000000000000000602082015250565b7f4552433732313a206d696e7420746f20746865207a65726f2061646472657373600082015250565b7f4552433732313a20617070726f76656420717565727920666f72206e6f6e657860008201527f697374656e7420746f6b656e0000000000000000000000000000000000000000602082015250565b7f4f776e61626c653a2063616c6c6572206973206e6f7420746865206f776e6572600082015250565b7f4552433732314d657461646174613a2055524920717565727920666f72206e6f60008201527f6e6578697374656e7420746f6b656e0000000000000000000000000000000000602082015250565b7f4552433732313a20617070726f76616c20746f2063757272656e74206f776e6560008201527f7200000000000000000000000000000000000000000000000000000000000000602082015250565b7f4552433732313a207472616e736665722063616c6c6572206973206e6f74206f60008201527f776e6572206e6f7220617070726f766564000000000000000000000000000000602082015250565b61317081612a41565b811461317b57600080fd5b50565b61318781612a53565b811461319257600080fd5b50565b61319e81612a5f565b81146131a957600080fd5b50565b6131b581612aab565b81146131c057600080fd5b5056fea2646970667358221220f036c3892b063a45e828aea82fc6138265b9490b1e61db4888905b0a515731fe64736f6c63430008010033",
  "immutableReferences": {},
  "source": "// SPDX-License-Identifier: MIT\r\npragma solidity >=0.6.0 <0.9.0;\r\n\r\nimport \"@openzeppelin/contracts/token/ERC721/ERC721.sol\";\r\nimport \"@openzeppelin/contracts/access/Ownable.sol\";\r\n\r\ncontract ERC721Capped is ERC721, Ownable {\r\n\r\n    uint64 _totalMinted;\r\n    bool _isMintable;\r\n    uint256 _mintPrice;\r\n    uint64 _cap;\r\n\r\n    constructor(string memory name_, string memory symbol_, uint64 cap) ERC721 (name_, symbol_) {\r\n        _cap = cap;\r\n    }\r\n\r\n\r\n        \r\n    function getTotalSupply() public view returns (uint64) {\r\n        return _totalMinted;\r\n    }\r\n    \r\n    function getBalance() public view returns (uint256) {\r\n        return address(this).balance;\r\n    }\r\n\r\n    function _createNFT() internal {\r\n        require(_totalMinted <=  _cap, \"Exceeeded cap.\");\r\n        _totalMinted++;\r\n        _mint(msg.sender, _totalMinted);\r\n    }\r\n\r\n    function ownerMint() public onlyOwner {\r\n        _createNFT();\r\n    }\r\n\r\n    function getMintPrice() public view returns (uint256) {\r\n        return _mintPrice;\r\n    }\r\n\r\n    function publicMint() public payable {\r\n        require(_isMintable && msg.value == _mintPrice);\r\n        _createNFT();\r\n    }\r\n\r\n    function setMintPrice(uint256 mintPrice) public onlyOwner {\r\n        _mintPrice = mintPrice;\r\n    }\r\n\r\n    function openSales(uint256 mintPrice) public onlyOwner {\r\n        _isMintable = true;\r\n        setMintPrice(mintPrice);\r\n    }\r\n\r\n    function closeSales() public onlyOwner {\r\n        _isMintable = false;\r\n    }\r\n\r\n    function withdraw() public payable onlyOwner {\r\n        payable(owner()).transfer(getBalance());\r\n    }\r\n}",
  "sourcePath": "E:\\New folder\\truffle-react\\src\\contracts\\ERC721Capped.sol",
  "compiler": {
    "name": "solc",
    "version": "0.8.1+commit.df193b15.Emscripten.clang"
  },
  "schemaVersion": "3.4.7",
  "updatedAt": "2022-06-07T14:52:10.885Z",
  "networkType": "ethereum",
  "devdoc": {
    "kind": "dev",
    "methods": {
      "approve(address,uint256)": {
        "details": "See {IERC721-approve}."
      },
      "balanceOf(address)": {
        "details": "See {IERC721-balanceOf}."
      },
      "getApproved(uint256)": {
        "details": "See {IERC721-getApproved}."
      },
      "isApprovedForAll(address,address)": {
        "details": "See {IERC721-isApprovedForAll}."
      },
      "name()": {
        "details": "See {IERC721Metadata-name}."
      },
      "owner()": {
        "details": "Returns the address of the current owner."
      },
      "ownerOf(uint256)": {
        "details": "See {IERC721-ownerOf}."
      },
      "renounceOwnership()": {
        "details": "Leaves the contract without owner. It will not be possible to call `onlyOwner` functions anymore. Can only be called by the current owner. NOTE: Renouncing ownership will leave the contract without an owner, thereby removing any functionality that is only available to the owner."
      },
      "safeTransferFrom(address,address,uint256)": {
        "details": "See {IERC721-safeTransferFrom}."
      },
      "safeTransferFrom(address,address,uint256,bytes)": {
        "details": "See {IERC721-safeTransferFrom}."
      },
      "setApprovalForAll(address,bool)": {
        "details": "See {IERC721-setApprovalForAll}."
      },
      "supportsInterface(bytes4)": {
        "details": "See {IERC165-supportsInterface}."
      },
      "symbol()": {
        "details": "See {IERC721Metadata-symbol}."
      },
      "tokenURI(uint256)": {
        "details": "See {IERC721Metadata-tokenURI}."
      },
      "transferFrom(address,address,uint256)": {
        "details": "See {IERC721-transferFrom}."
      },
      "transferOwnership(address)": {
        "details": "Transfers ownership of the contract to a new account (`newOwner`). Can only be called by the current owner."
      }
    },
    "version": 1
  },
  "userdoc": {
    "kind": "user",
    "methods": {},
    "version": 1
  }
}