{
  "contractName": "ERC721Capped",
  "abi": [
    {
      "inputs": [
        {
          "internalType": "string",
          "name": "name_",
          "type": "string"
        },
        {
          "internalType": "string",
          "name": "symbol_",
          "type": "string"
        },
        {
          "internalType": "uint64",
          "name": "cap",
          "type": "uint64"
        }
      ],
      "stateMutability": "nonpayable",
      "type": "constructor"
    },
    {
      "anonymous": false,
      "inputs": [
        {
          "indexed": true,
          "internalType": "address",
          "name": "owner",
          "type": "address"
        },
        {
          "indexed": true,
          "internalType": "address",
          "name": "approved",
          "type": "address"
        },
        {
          "indexed": true,
          "internalType": "uint256",
          "name": "tokenId",
          "type": "uint256"
        }
      ],
      "name": "Approval",
      "type": "event"
    },
    {
      "anonymous": false,
      "inputs": [
        {
          "indexed": true,
          "internalType": "address",
          "name": "owner",
          "type": "address"
        },
        {
          "indexed": true,
          "internalType": "address",
          "name": "operator",
          "type": "address"
        },
        {
          "indexed": false,
          "internalType": "bool",
          "name": "approved",
          "type": "bool"
        }
      ],
      "name": "ApprovalForAll",
      "type": "event"
    },
    {
      "anonymous": false,
      "inputs": [
        {
          "indexed": true,
          "internalType": "address",
          "name": "previousOwner",
          "type": "address"
        },
        {
          "indexed": true,
          "internalType": "address",
          "name": "newOwner",
          "type": "address"
        }
      ],
      "name": "OwnershipTransferred",
      "type": "event"
    },
    {
      "anonymous": false,
      "inputs": [
        {
          "indexed": true,
          "internalType": "address",
          "name": "from",
          "type": "address"
        },
        {
          "indexed": true,
          "internalType": "address",
          "name": "to",
          "type": "address"
        },
        {
          "indexed": true,
          "internalType": "uint256",
          "name": "tokenId",
          "type": "uint256"
        }
      ],
      "name": "Transfer",
      "type": "event"
    },
    {
      "inputs": [
        {
          "internalType": "address",
          "name": "to",
          "type": "address"
        },
        {
          "internalType": "uint256",
          "name": "tokenId",
          "type": "uint256"
        }
      ],
      "name": "approve",
      "outputs": [],
      "stateMutability": "nonpayable",
      "type": "function"
    },
    {
      "inputs": [
        {
          "internalType": "address",
          "name": "owner",
          "type": "address"
        }
      ],
      "name": "balanceOf",
      "outputs": [
        {
          "internalType": "uint256",
          "name": "",
          "type": "uint256"
        }
      ],
      "stateMutability": "view",
      "type": "function",
      "constant": true
    },
    {
      "inputs": [
        {
          "internalType": "uint256",
          "name": "tokenId",
          "type": "uint256"
        }
      ],
      "name": "getApproved",
      "outputs": [
        {
          "internalType": "address",
          "name": "",
          "type": "address"
        }
      ],
      "stateMutability": "view",
      "type": "function",
      "constant": true
    },
    {
      "inputs": [
        {
          "internalType": "address",
          "name": "owner",
          "type": "address"
        },
        {
          "internalType": "address",
          "name": "operator",
          "type": "address"
        }
      ],
      "name": "isApprovedForAll",
      "outputs": [
        {
          "internalType": "bool",
          "name": "",
          "type": "bool"
        }
      ],
      "stateMutability": "view",
      "type": "function",
      "constant": true
    },
    {
      "inputs": [],
      "name": "name",
      "outputs": [
        {
          "internalType": "string",
          "name": "",
          "type": "string"
        }
      ],
      "stateMutability": "view",
      "type": "function",
      "constant": true
    },
    {
      "inputs": [],
      "name": "owner",
      "outputs": [
        {
          "internalType": "address",
          "name": "",
          "type": "address"
        }
      ],
      "stateMutability": "view",
      "type": "function",
      "constant": true
    },
    {
      "inputs": [
        {
          "internalType": "uint256",
          "name": "tokenId",
          "type": "uint256"
        }
      ],
      "name": "ownerOf",
      "outputs": [
        {
          "internalType": "address",
          "name": "",
          "type": "address"
        }
      ],
      "stateMutability": "view",
      "type": "function",
      "constant": true
    },
    {
      "inputs": [],
      "name": "renounceOwnership",
      "outputs": [],
      "stateMutability": "nonpayable",
      "type": "function"
    },
    {
      "inputs": [
        {
          "internalType": "address",
          "name": "from",
          "type": "address"
        },
        {
          "internalType": "address",
          "name": "to",
          "type": "address"
        },
        {
          "internalType": "uint256",
          "name": "tokenId",
          "type": "uint256"
        }
      ],
      "name": "safeTransferFrom",
      "outputs": [],
      "stateMutability": "nonpayable",
      "type": "function"
    },
    {
      "inputs": [
        {
          "internalType": "address",
          "name": "from",
          "type": "address"
        },
        {
          "internalType": "address",
          "name": "to",
          "type": "address"
        },
        {
          "internalType": "uint256",
          "name": "tokenId",
          "type": "uint256"
        },
        {
          "internalType": "bytes",
          "name": "_data",
          "type": "bytes"
        }
      ],
      "name": "safeTransferFrom",
      "outputs": [],
      "stateMutability": "nonpayable",
      "type": "function"
    },
    {
      "inputs": [
        {
          "internalType": "address",
          "name": "operator",
          "type": "address"
        },
        {
          "internalType": "bool",
          "name": "approved",
          "type": "bool"
        }
      ],
      "name": "setApprovalForAll",
      "outputs": [],
      "stateMutability": "nonpayable",
      "type": "function"
    },
    {
      "inputs": [
        {
          "internalType": "bytes4",
          "name": "interfaceId",
          "type": "bytes4"
        }
      ],
      "name": "supportsInterface",
      "outputs": [
        {
          "internalType": "bool",
          "name": "",
          "type": "bool"
        }
      ],
      "stateMutability": "view",
      "type": "function",
      "constant": true
    },
    {
      "inputs": [],
      "name": "symbol",
      "outputs": [
        {
          "internalType": "string",
          "name": "",
          "type": "string"
        }
      ],
      "stateMutability": "view",
      "type": "function",
      "constant": true
    },
    {
      "inputs": [
        {
          "internalType": "uint256",
          "name": "tokenId",
          "type": "uint256"
        }
      ],
      "name": "tokenURI",
      "outputs": [
        {
          "internalType": "string",
          "name": "",
          "type": "string"
        }
      ],
      "stateMutability": "view",
      "type": "function",
      "constant": true
    },
    {
      "inputs": [
        {
          "internalType": "address",
          "name": "from",
          "type": "address"
        },
        {
          "internalType": "address",
          "name": "to",
          "type": "address"
        },
        {
          "internalType": "uint256",
          "name": "tokenId",
          "type": "uint256"
        }
      ],
      "name": "transferFrom",
      "outputs": [],
      "stateMutability": "nonpayable",
      "type": "function"
    },
    {
      "inputs": [
        {
          "internalType": "address",
          "name": "newOwner",
          "type": "address"
        }
      ],
      "name": "transferOwnership",
      "outputs": [],
      "stateMutability": "nonpayable",
      "type": "function"
    },
    {
      "inputs": [],
      "name": "getTotalSupply",
      "outputs": [
        {
          "internalType": "uint64",
          "name": "",
          "type": "uint64"
        }
      ],
      "stateMutability": "view",
      "type": "function",
      "constant": true
    },
    {
      "inputs": [],
      "name": "getBalance",
      "outputs": [
        {
          "internalType": "uint256",
          "name": "",
          "type": "uint256"
        }
      ],
      "stateMutability": "view",
      "type": "function",
      "constant": true
    },
    {
      "inputs": [],
      "name": "ownerMint",
      "outputs": [],
      "stateMutability": "nonpayable",
      "type": "function"
    },
    {
      "inputs": [],
      "name": "publicMint",
      "outputs": [],
      "stateMutability": "payable",
      "type": "function",
      "payable": true
    },
    {
      "inputs": [
        {
          "internalType": "uint256",
          "name": "mintPrice",
          "type": "uint256"
        }
      ],
      "name": "setMintPrice",
      "outputs": [],
      "stateMutability": "nonpayable",
      "type": "function"
    },
    {
      "inputs": [
        {
          "internalType": "uint256",
          "name": "mintPrice",
          "type": "uint256"
        }
      ],
      "name": "openSales",
      "outputs": [],
      "stateMutability": "nonpayable",
      "type": "function"
    },
    {
      "inputs": [],
      "name": "closeSales",
      "outputs": [],
      "stateMutability": "nonpayable",
      "type": "function"
    },
    {
      "inputs": [],
      "name": "withdraw",
      "outputs": [],
      "stateMutability": "payable",
      "type": "function",
      "payable": true
    }
  ],
  "bytecode": "0x60806040523480156200001157600080fd5b5060405162003603380380620036038339818101604052810190620000379190620002c6565b82828160009080519060200190620000519291906200018d565b5080600190805190602001906200006a9291906200018d565b5050506200008d62000081620000bf60201b60201c565b620000c760201b60201c565b80600860006101000a81548167ffffffffffffffff021916908367ffffffffffffffff160217905550505050620004ec565b600033905090565b6000600660009054906101000a900473ffffffffffffffffffffffffffffffffffffffff16905081600660006101000a81548173ffffffffffffffffffffffffffffffffffffffff021916908373ffffffffffffffffffffffffffffffffffffffff1602179055508173ffffffffffffffffffffffffffffffffffffffff168173ffffffffffffffffffffffffffffffffffffffff167f8be0079c531659141344cd1fd0a4f28419497f9722a3daafe3b4186f6b6457e060405160405180910390a35050565b8280546200019b90620003f7565b90600052602060002090601f016020900481019282620001bf57600085556200020b565b82601f10620001da57805160ff19168380011785556200020b565b828001600101855582156200020b579182015b828111156200020a578251825591602001919060010190620001ed565b5b5090506200021a91906200021e565b5090565b5b80821115620002395760008160009055506001016200021f565b5090565b6000620002546200024e8462000377565b6200034e565b9050828152602081018484840111156200026d57600080fd5b6200027a848285620003c1565b509392505050565b600082601f8301126200029457600080fd5b8151620002a68482602086016200023d565b91505092915050565b600081519050620002c081620004d2565b92915050565b600080600060608486031215620002dc57600080fd5b600084015167ffffffffffffffff811115620002f757600080fd5b620003058682870162000282565b935050602084015167ffffffffffffffff8111156200032357600080fd5b620003318682870162000282565b92505060406200034486828701620002af565b9150509250925092565b60006200035a6200036d565b90506200036882826200042d565b919050565b6000604051905090565b600067ffffffffffffffff82111562000395576200039462000492565b5b620003a082620004c1565b9050602081019050919050565b600067ffffffffffffffff82169050919050565b60005b83811015620003e1578082015181840152602081019050620003c4565b83811115620003f1576000848401525b50505050565b600060028204905060018216806200041057607f821691505b6020821081141562000427576200042662000463565b5b50919050565b6200043882620004c1565b810181811067ffffffffffffffff821117156200045a576200045962000492565b5b80604052505050565b7f4e487b7100000000000000000000000000000000000000000000000000000000600052602260045260246000fd5b7f4e487b7100000000000000000000000000000000000000000000000000000000600052604160045260246000fd5b6000601f19601f8301169050919050565b620004dd81620003ad565b8114620004e957600080fd5b50565b61310780620004fc6000396000f3fe60806040526004361061014b5760003560e01c8063715018a6116100b6578063c4e41b221161006f578063c4e41b2214610416578063c87b56dd14610441578063dd3691e61461047e578063e985e9c5146104a7578063f2fde38b146104e4578063f4a0a5281461050d5761014b565b8063715018a6146103405780638da5cb5b1461035757806395d89b4114610382578063a22cb465146103ad578063b12dc991146103d6578063b88d4fde146103ed5761014b565b806323b872dd1161010857806323b872dd1461026057806326092b83146102895780633ccfd60b1461029357806342842e0e1461029d5780636352211e146102c657806370a08231146103035761014b565b806301ffc9a71461015057806306fdde031461018d578063081812fc146101b8578063095ea7b3146101f557806312065fe01461021e57806315a8f07314610249575b600080fd5b34801561015c57600080fd5b506101776004803603810190610172919061219c565b610536565b60405161018491906125b1565b60405180910390f35b34801561019957600080fd5b506101a2610618565b6040516101af91906125cc565b60405180910390f35b3480156101c457600080fd5b506101df60048036038101906101da91906121ee565b6106aa565b6040516101ec919061254a565b60405180910390f35b34801561020157600080fd5b5061021c60048036038101906102179190612160565b61072f565b005b34801561022a57600080fd5b50610233610847565b60405161024091906127ee565b60405180910390f35b34801561025557600080fd5b5061025e61084f565b005b34801561026c57600080fd5b506102876004803603810190610282919061205a565b6108e8565b005b610291610948565b005b61029b610978565b005b3480156102a957600080fd5b506102c460048036038101906102bf919061205a565b610a4b565b005b3480156102d257600080fd5b506102ed60048036038101906102e891906121ee565b610a6b565b6040516102fa919061254a565b60405180910390f35b34801561030f57600080fd5b5061032a60048036038101906103259190611ff5565b610b1d565b60405161033791906127ee565b60405180910390f35b34801561034c57600080fd5b50610355610bd5565b005b34801561036357600080fd5b5061036c610c5d565b604051610379919061254a565b60405180910390f35b34801561038e57600080fd5b50610397610c87565b6040516103a491906125cc565b60405180910390f35b3480156103b957600080fd5b506103d460048036038101906103cf9190612124565b610d19565b005b3480156103e257600080fd5b506103eb610d2f565b005b3480156103f957600080fd5b50610414600480360381019061040f91906120a9565b610db5565b005b34801561042257600080fd5b5061042b610e17565b6040516104389190612809565b60405180910390f35b34801561044d57600080fd5b50610468600480360381019061046391906121ee565b610e35565b60405161047591906125cc565b60405180910390f35b34801561048a57600080fd5b506104a560048036038101906104a091906121ee565b610edc565b005b3480156104b357600080fd5b506104ce60048036038101906104c9919061201e565b610f7f565b6040516104db91906125b1565b60405180910390f35b3480156104f057600080fd5b5061050b60048036038101906105069190611ff5565b611013565b005b34801561051957600080fd5b50610534600480360381019061052f91906121ee565b61110b565b005b60007f80ac58cd000000000000000000000000000000000000000000000000000000007bffffffffffffffffffffffffffffffffffffffffffffffffffffffff1916827bffffffffffffffffffffffffffffffffffffffffffffffffffffffff1916148061060157507f5b5e139f000000000000000000000000000000000000000000000000000000007bffffffffffffffffffffffffffffffffffffffffffffffffffffffff1916827bffffffffffffffffffffffffffffffffffffffffffffffffffffffff1916145b80610611575061061082611191565b5b9050919050565b60606000805461062790612a42565b80601f016020809104026020016040519081016040528092919081815260200182805461065390612a42565b80156106a05780601f10610675576101008083540402835291602001916106a0565b820191906000526020600020905b81548152906001019060200180831161068357829003601f168201915b5050505050905090565b60006106b5826111fb565b6106f4576040517f08c379a00000000000000000000000000000000000000000000000000000000081526004016106eb9061274e565b60405180910390fd5b6004600083815260200190815260200160002060009054906101000a900473ffffffffffffffffffffffffffffffffffffffff169050919050565b600061073a82610a6b565b90508073ffffffffffffffffffffffffffffffffffffffff168373ffffffffffffffffffffffffffffffffffffffff1614156107ab576040517f08c379a00000000000000000000000000000000000000000000000000000000081526004016107a2906127ae565b60405180910390fd5b8073ffffffffffffffffffffffffffffffffffffffff166107ca611267565b73ffffffffffffffffffffffffffffffffffffffff1614806107f957506107f8816107f3611267565b610f7f565b5b610838576040517f08c379a000000000000000000000000000000000000000000000000000000000815260040161082f906126ce565b60405180910390fd5b610842838361126f565b505050565b600047905090565b610857611267565b73ffffffffffffffffffffffffffffffffffffffff16610875610c5d565b73ffffffffffffffffffffffffffffffffffffffff16146108cb576040517f08c379a00000000000000000000000000000000000000000000000000000000081526004016108c29061276e565b60405180910390fd5b60006006601c6101000a81548160ff021916908315150217905550565b6108f96108f3611267565b82611328565b610938576040517f08c379a000000000000000000000000000000000000000000000000000000000815260040161092f906127ce565b60405180910390fd5b610943838383611406565b505050565b6006601c9054906101000a900460ff168015610965575060075434145b61096e57600080fd5b61097661166d565b565b610980611267565b73ffffffffffffffffffffffffffffffffffffffff1661099e610c5d565b73ffffffffffffffffffffffffffffffffffffffff16146109f4576040517f08c379a00000000000000000000000000000000000000000000000000000000081526004016109eb9061276e565b60405180910390fd5b6109fc610c5d565b73ffffffffffffffffffffffffffffffffffffffff166108fc610a1d610847565b9081150290604051600060405180830381858888f19350505050158015610a48573d6000803e3d6000fd5b50565b610a6683838360405180602001604052806000815250610db5565b505050565b6000806002600084815260200190815260200160002060009054906101000a900473ffffffffffffffffffffffffffffffffffffffff169050600073ffffffffffffffffffffffffffffffffffffffff168173ffffffffffffffffffffffffffffffffffffffff161415610b14576040517f08c379a0000000000000000000000000000000000000000000000000000000008152600401610b0b9061270e565b60405180910390fd5b80915050919050565b60008073ffffffffffffffffffffffffffffffffffffffff168273ffffffffffffffffffffffffffffffffffffffff161415610b8e576040517f08c379a0000000000000000000000000000000000000000000000000000000008152600401610b85906126ee565b60405180910390fd5b600360008373ffffffffffffffffffffffffffffffffffffffff1673ffffffffffffffffffffffffffffffffffffffff168152602001908152602001600020549050919050565b610bdd611267565b73ffffffffffffffffffffffffffffffffffffffff16610bfb610c5d565b73ffffffffffffffffffffffffffffffffffffffff1614610c51576040517f08c379a0000000000000000000000000000000000000000000000000000000008152600401610c489061276e565b60405180910390fd5b610c5b6000611733565b565b6000600660009054906101000a900473ffffffffffffffffffffffffffffffffffffffff16905090565b606060018054610c9690612a42565b80601f0160208091040260200160405190810160405280929190818152602001828054610cc290612a42565b8015610d0f5780601f10610ce457610100808354040283529160200191610d0f565b820191906000526020600020905b815481529060010190602001808311610cf257829003601f168201915b5050505050905090565b610d2b610d24611267565b83836117f9565b5050565b610d37611267565b73ffffffffffffffffffffffffffffffffffffffff16610d55610c5d565b73ffffffffffffffffffffffffffffffffffffffff1614610dab576040517f08c379a0000000000000000000000000000000000000000000000000000000008152600401610da29061276e565b60405180910390fd5b610db361166d565b565b610dc6610dc0611267565b83611328565b610e05576040517f08c379a0000000000000000000000000000000000000000000000000000000008152600401610dfc906127ce565b60405180910390fd5b610e1184848484611966565b50505050565b6000600660149054906101000a900467ffffffffffffffff16905090565b6060610e40826111fb565b610e7f576040517f08c379a0000000000000000000000000000000000000000000000000000000008152600401610e769061278e565b60405180910390fd5b6000610e896119c2565b90506000815111610ea95760405180602001604052806000815250610ed4565b80610eb3846119d9565b604051602001610ec4929190612526565b6040516020818303038152906040525b915050919050565b610ee4611267565b73ffffffffffffffffffffffffffffffffffffffff16610f02610c5d565b73ffffffffffffffffffffffffffffffffffffffff1614610f58576040517f08c379a0000000000000000000000000000000000000000000000000000000008152600401610f4f9061276e565b60405180910390fd5b60016006601c6101000a81548160ff021916908315150217905550610f7c8161110b565b50565b6000600560008473ffffffffffffffffffffffffffffffffffffffff1673ffffffffffffffffffffffffffffffffffffffff16815260200190815260200160002060008373ffffffffffffffffffffffffffffffffffffffff1673ffffffffffffffffffffffffffffffffffffffff16815260200190815260200160002060009054906101000a900460ff16905092915050565b61101b611267565b73ffffffffffffffffffffffffffffffffffffffff16611039610c5d565b73ffffffffffffffffffffffffffffffffffffffff161461108f576040517f08c379a00000000000000000000000000000000000000000000000000000000081526004016110869061276e565b60405180910390fd5b600073ffffffffffffffffffffffffffffffffffffffff168173ffffffffffffffffffffffffffffffffffffffff1614156110ff576040517f08c379a00000000000000000000000000000000000000000000000000000000081526004016110f69061260e565b60405180910390fd5b61110881611733565b50565b611113611267565b73ffffffffffffffffffffffffffffffffffffffff16611131610c5d565b73ffffffffffffffffffffffffffffffffffffffff1614611187576040517f08c379a000000000000000000000000000000000000000000000000000000000815260040161117e9061276e565b60405180910390fd5b8060078190555050565b60007f01ffc9a7000000000000000000000000000000000000000000000000000000007bffffffffffffffffffffffffffffffffffffffffffffffffffffffff1916827bffffffffffffffffffffffffffffffffffffffffffffffffffffffff1916149050919050565b60008073ffffffffffffffffffffffffffffffffffffffff166002600084815260200190815260200160002060009054906101000a900473ffffffffffffffffffffffffffffffffffffffff1673ffffffffffffffffffffffffffffffffffffffff1614159050919050565b600033905090565b816004600083815260200190815260200160002060006101000a81548173ffffffffffffffffffffffffffffffffffffffff021916908373ffffffffffffffffffffffffffffffffffffffff160217905550808273ffffffffffffffffffffffffffffffffffffffff166112e283610a6b565b73ffffffffffffffffffffffffffffffffffffffff167f8c5be1e5ebec7d5bd14f71427d1e84f3dd0314c0f7b2291e5b200ac8c7c3b92560405160405180910390a45050565b6000611333826111fb565b611372576040517f08c379a0000000000000000000000000000000000000000000000000000000008152600401611369906126ae565b60405180910390fd5b600061137d83610a6b565b90508073ffffffffffffffffffffffffffffffffffffffff168473ffffffffffffffffffffffffffffffffffffffff1614806113ec57508373ffffffffffffffffffffffffffffffffffffffff166113d4846106aa565b73ffffffffffffffffffffffffffffffffffffffff16145b806113fd57506113fc8185610f7f565b5b91505092915050565b8273ffffffffffffffffffffffffffffffffffffffff1661142682610a6b565b73ffffffffffffffffffffffffffffffffffffffff161461147c576040517f08c379a00000000000000000000000000000000000000000000000000000000081526004016114739061262e565b60405180910390fd5b600073ffffffffffffffffffffffffffffffffffffffff168273ffffffffffffffffffffffffffffffffffffffff1614156114ec576040517f08c379a00000000000000000000000000000000000000000000000000000000081526004016114e39061266e565b60405180910390fd5b6114f7838383611b86565b61150260008261126f565b6001600360008573ffffffffffffffffffffffffffffffffffffffff1673ffffffffffffffffffffffffffffffffffffffff16815260200190815260200160002060008282546115529190612944565b925050819055506001600360008473ffffffffffffffffffffffffffffffffffffffff1673ffffffffffffffffffffffffffffffffffffffff16815260200190815260200160002060008282546115a991906128bd565b92505081905550816002600083815260200190815260200160002060006101000a81548173ffffffffffffffffffffffffffffffffffffffff021916908373ffffffffffffffffffffffffffffffffffffffff160217905550808273ffffffffffffffffffffffffffffffffffffffff168473ffffffffffffffffffffffffffffffffffffffff167fddf252ad1be2c89b69c2b068fc378daa952ba7f163c4a11628f55a4df523b3ef60405160405180910390a4611668838383611b8b565b505050565b600860009054906101000a900467ffffffffffffffff1667ffffffffffffffff16600660149054906101000a900467ffffffffffffffff1667ffffffffffffffff1611156116ba57600080fd5b6006601481819054906101000a900467ffffffffffffffff16809291906116e090612aee565b91906101000a81548167ffffffffffffffff021916908367ffffffffffffffff1602179055505061173133600660149054906101000a900467ffffffffffffffff1667ffffffffffffffff16611b90565b565b6000600660009054906101000a900473ffffffffffffffffffffffffffffffffffffffff16905081600660006101000a81548173ffffffffffffffffffffffffffffffffffffffff021916908373ffffffffffffffffffffffffffffffffffffffff1602179055508173ffffffffffffffffffffffffffffffffffffffff168173ffffffffffffffffffffffffffffffffffffffff167f8be0079c531659141344cd1fd0a4f28419497f9722a3daafe3b4186f6b6457e060405160405180910390a35050565b8173ffffffffffffffffffffffffffffffffffffffff168373ffffffffffffffffffffffffffffffffffffffff161415611868576040517f08c379a000000000000000000000000000000000000000000000000000000000815260040161185f9061268e565b60405180910390fd5b80600560008573ffffffffffffffffffffffffffffffffffffffff1673ffffffffffffffffffffffffffffffffffffffff16815260200190815260200160002060008473ffffffffffffffffffffffffffffffffffffffff1673ffffffffffffffffffffffffffffffffffffffff16815260200190815260200160002060006101000a81548160ff0219169083151502179055508173ffffffffffffffffffffffffffffffffffffffff168373ffffffffffffffffffffffffffffffffffffffff167f17307eab39ab6107e8899845ad3d59bd9653f200f220920489ca2b5937696c318360405161195991906125b1565b60405180910390a3505050565b611971848484611406565b61197d84848484611d6a565b6119bc576040517f08c379a00000000000000000000000000000000000000000000000000000000081526004016119b3906125ee565b60405180910390fd5b50505050565b606060405180602001604052806000815250905090565b60606000821415611a21576040518060400160405280600181526020017f30000000000000000000000000000000000000000000000000000000000000008152509050611b81565b600082905060005b60008214611a53578080611a3c90612aa5565b915050600a82611a4c9190612913565b9150611a29565b60008167ffffffffffffffff811115611a95577f4e487b7100000000000000000000000000000000000000000000000000000000600052604160045260246000fd5b6040519080825280601f01601f191660200182016040528015611ac75781602001600182028036833780820191505090505b5090505b60008514611b7a57600182611ae09190612944565b9150600a85611aef9190612b1f565b6030611afb91906128bd565b60f81b818381518110611b37577f4e487b7100000000000000000000000000000000000000000000000000000000600052603260045260246000fd5b60200101907effffffffffffffffffffffffffffffffffffffffffffffffffffffffffffff1916908160001a905350600a85611b739190612913565b9450611acb565b8093505050505b919050565b505050565b505050565b600073ffffffffffffffffffffffffffffffffffffffff168273ffffffffffffffffffffffffffffffffffffffff161415611c00576040517f08c379a0000000000000000000000000000000000000000000000000000000008152600401611bf79061272e565b60405180910390fd5b611c09816111fb565b15611c49576040517f08c379a0000000000000000000000000000000000000000000000000000000008152600401611c409061264e565b60405180910390fd5b611c5560008383611b86565b6001600360008473ffffffffffffffffffffffffffffffffffffffff1673ffffffffffffffffffffffffffffffffffffffff1681526020019081526020016000206000828254611ca591906128bd565b92505081905550816002600083815260200190815260200160002060006101000a81548173ffffffffffffffffffffffffffffffffffffffff021916908373ffffffffffffffffffffffffffffffffffffffff160217905550808273ffffffffffffffffffffffffffffffffffffffff16600073ffffffffffffffffffffffffffffffffffffffff167fddf252ad1be2c89b69c2b068fc378daa952ba7f163c4a11628f55a4df523b3ef60405160405180910390a4611d6660008383611b8b565b5050565b6000611d8b8473ffffffffffffffffffffffffffffffffffffffff16611f01565b15611ef4578373ffffffffffffffffffffffffffffffffffffffff1663150b7a02611db4611267565b8786866040518563ffffffff1660e01b8152600401611dd69493929190612565565b602060405180830381600087803b158015611df057600080fd5b505af1925050508015611e2157506040513d601f19601f82011682018060405250810190611e1e91906121c5565b60015b611ea4573d8060008114611e51576040519150601f19603f3d011682016040523d82523d6000602084013e611e56565b606091505b50600081511415611e9c576040517f08c379a0000000000000000000000000000000000000000000000000000000008152600401611e93906125ee565b60405180910390fd5b805181602001fd5b63150b7a0260e01b7bffffffffffffffffffffffffffffffffffffffffffffffffffffffff1916817bffffffffffffffffffffffffffffffffffffffffffffffffffffffff191614915050611ef9565b600190505b949350505050565b6000808273ffffffffffffffffffffffffffffffffffffffff163b119050919050565b6000611f37611f3284612849565b612824565b905082815260208101848484011115611f4f57600080fd5b611f5a848285612a00565b509392505050565b600081359050611f7181613075565b92915050565b600081359050611f868161308c565b92915050565b600081359050611f9b816130a3565b92915050565b600081519050611fb0816130a3565b92915050565b600082601f830112611fc757600080fd5b8135611fd7848260208601611f24565b91505092915050565b600081359050611fef816130ba565b92915050565b60006020828403121561200757600080fd5b600061201584828501611f62565b91505092915050565b6000806040838503121561203157600080fd5b600061203f85828601611f62565b925050602061205085828601611f62565b9150509250929050565b60008060006060848603121561206f57600080fd5b600061207d86828701611f62565b935050602061208e86828701611f62565b925050604061209f86828701611fe0565b9150509250925092565b600080600080608085870312156120bf57600080fd5b60006120cd87828801611f62565b94505060206120de87828801611f62565b93505060406120ef87828801611fe0565b925050606085013567ffffffffffffffff81111561210c57600080fd5b61211887828801611fb6565b91505092959194509250565b6000806040838503121561213757600080fd5b600061214585828601611f62565b925050602061215685828601611f77565b9150509250929050565b6000806040838503121561217357600080fd5b600061218185828601611f62565b925050602061219285828601611fe0565b9150509250929050565b6000602082840312156121ae57600080fd5b60006121bc84828501611f8c565b91505092915050565b6000602082840312156121d757600080fd5b60006121e584828501611fa1565b91505092915050565b60006020828403121561220057600080fd5b600061220e84828501611fe0565b91505092915050565b61222081612978565b82525050565b61222f8161298a565b82525050565b60006122408261287a565b61224a8185612890565b935061225a818560208601612a0f565b61226381612c0c565b840191505092915050565b600061227982612885565b61228381856128a1565b9350612293818560208601612a0f565b61229c81612c0c565b840191505092915050565b60006122b282612885565b6122bc81856128b2565b93506122cc818560208601612a0f565b80840191505092915050565b60006122e56032836128a1565b91506122f082612c1d565b604082019050919050565b60006123086026836128a1565b915061231382612c6c565b604082019050919050565b600061232b6025836128a1565b915061233682612cbb565b604082019050919050565b600061234e601c836128a1565b915061235982612d0a565b602082019050919050565b60006123716024836128a1565b915061237c82612d33565b604082019050919050565b60006123946019836128a1565b915061239f82612d82565b602082019050919050565b60006123b7602c836128a1565b91506123c282612dab565b604082019050919050565b60006123da6038836128a1565b91506123e582612dfa565b604082019050919050565b60006123fd602a836128a1565b915061240882612e49565b604082019050919050565b60006124206029836128a1565b915061242b82612e98565b604082019050919050565b60006124436020836128a1565b915061244e82612ee7565b602082019050919050565b6000612466602c836128a1565b915061247182612f10565b604082019050919050565b60006124896020836128a1565b915061249482612f5f565b602082019050919050565b60006124ac602f836128a1565b91506124b782612f88565b604082019050919050565b60006124cf6021836128a1565b91506124da82612fd7565b604082019050919050565b60006124f26031836128a1565b91506124fd82613026565b604082019050919050565b612511816129e2565b82525050565b612520816129ec565b82525050565b600061253282856122a7565b915061253e82846122a7565b91508190509392505050565b600060208201905061255f6000830184612217565b92915050565b600060808201905061257a6000830187612217565b6125876020830186612217565b6125946040830185612508565b81810360608301526125a68184612235565b905095945050505050565b60006020820190506125c66000830184612226565b92915050565b600060208201905081810360008301526125e6818461226e565b905092915050565b60006020820190508181036000830152612607816122d8565b9050919050565b60006020820190508181036000830152612627816122fb565b9050919050565b600060208201905081810360008301526126478161231e565b9050919050565b6000602082019050818103600083015261266781612341565b9050919050565b6000602082019050818103600083015261268781612364565b9050919050565b600060208201905081810360008301526126a781612387565b9050919050565b600060208201905081810360008301526126c7816123aa565b9050919050565b600060208201905081810360008301526126e7816123cd565b9050919050565b60006020820190508181036000830152612707816123f0565b9050919050565b6000602082019050818103600083015261272781612413565b9050919050565b6000602082019050818103600083015261274781612436565b9050919050565b6000602082019050818103600083015261276781612459565b9050919050565b600060208201905081810360008301526127878161247c565b9050919050565b600060208201905081810360008301526127a78161249f565b9050919050565b600060208201905081810360008301526127c7816124c2565b9050919050565b600060208201905081810360008301526127e7816124e5565b9050919050565b60006020820190506128036000830184612508565b92915050565b600060208201905061281e6000830184612517565b92915050565b600061282e61283f565b905061283a8282612a74565b919050565b6000604051905090565b600067ffffffffffffffff82111561286457612863612bdd565b5b61286d82612c0c565b9050602081019050919050565b600081519050919050565b600081519050919050565b600082825260208201905092915050565b600082825260208201905092915050565b600081905092915050565b60006128c8826129e2565b91506128d3836129e2565b9250827fffffffffffffffffffffffffffffffffffffffffffffffffffffffffffffffff0382111561290857612907612b50565b5b828201905092915050565b600061291e826129e2565b9150612929836129e2565b92508261293957612938612b7f565b5b828204905092915050565b600061294f826129e2565b915061295a836129e2565b92508282101561296d5761296c612b50565b5b828203905092915050565b6000612983826129c2565b9050919050565b60008115159050919050565b60007fffffffff0000000000000000000000000000000000000000000000000000000082169050919050565b600073ffffffffffffffffffffffffffffffffffffffff82169050919050565b6000819050919050565b600067ffffffffffffffff82169050919050565b82818337600083830152505050565b60005b83811015612a2d578082015181840152602081019050612a12565b83811115612a3c576000848401525b50505050565b60006002820490506001821680612a5a57607f821691505b60208210811415612a6e57612a6d612bae565b5b50919050565b612a7d82612c0c565b810181811067ffffffffffffffff82111715612a9c57612a9b612bdd565b5b80604052505050565b6000612ab0826129e2565b91507fffffffffffffffffffffffffffffffffffffffffffffffffffffffffffffffff821415612ae357612ae2612b50565b5b600182019050919050565b6000612af9826129ec565b915067ffffffffffffffff821415612b1457612b13612b50565b5b600182019050919050565b6000612b2a826129e2565b9150612b35836129e2565b925082612b4557612b44612b7f565b5b828206905092915050565b7f4e487b7100000000000000000000000000000000000000000000000000000000600052601160045260246000fd5b7f4e487b7100000000000000000000000000000000000000000000000000000000600052601260045260246000fd5b7f4e487b7100000000000000000000000000000000000000000000000000000000600052602260045260246000fd5b7f4e487b7100000000000000000000000000000000000000000000000000000000600052604160045260246000fd5b6000601f19601f8301169050919050565b7f4552433732313a207472616e7366657220746f206e6f6e20455243373231526560008201527f63656976657220696d706c656d656e7465720000000000000000000000000000602082015250565b7f4f776e61626c653a206e6577206f776e657220697320746865207a65726f206160008201527f6464726573730000000000000000000000000000000000000000000000000000602082015250565b7f4552433732313a207472616e736665722066726f6d20696e636f72726563742060008201527f6f776e6572000000000000000000000000000000000000000000000000000000602082015250565b7f4552433732313a20746f6b656e20616c7265616479206d696e74656400000000600082015250565b7f4552433732313a207472616e7366657220746f20746865207a65726f2061646460008201527f7265737300000000000000000000000000000000000000000000000000000000602082015250565b7f4552433732313a20617070726f766520746f2063616c6c657200000000000000600082015250565b7f4552433732313a206f70657261746f7220717565727920666f72206e6f6e657860008201527f697374656e7420746f6b656e0000000000000000000000000000000000000000602082015250565b7f4552433732313a20617070726f76652063616c6c6572206973206e6f74206f7760008201527f6e6572206e6f7220617070726f76656420666f7220616c6c0000000000000000602082015250565b7f4552433732313a2062616c616e636520717565727920666f7220746865207a6560008201527f726f206164647265737300000000000000000000000000000000000000000000602082015250565b7f4552433732313a206f776e657220717565727920666f72206e6f6e657869737460008201527f656e7420746f6b656e0000000000000000000000000000000000000000000000602082015250565b7f4552433732313a206d696e7420746f20746865207a65726f2061646472657373600082015250565b7f4552433732313a20617070726f76656420717565727920666f72206e6f6e657860008201527f697374656e7420746f6b656e0000000000000000000000000000000000000000602082015250565b7f4f776e61626c653a2063616c6c6572206973206e6f7420746865206f776e6572600082015250565b7f4552433732314d657461646174613a2055524920717565727920666f72206e6f60008201527f6e6578697374656e7420746f6b656e0000000000000000000000000000000000602082015250565b7f4552433732313a20617070726f76616c20746f2063757272656e74206f776e6560008201527f7200000000000000000000000000000000000000000000000000000000000000602082015250565b7f4552433732313a207472616e736665722063616c6c6572206973206e6f74206f60008201527f776e6572206e6f7220617070726f766564000000000000000000000000000000602082015250565b61307e81612978565b811461308957600080fd5b50565b6130958161298a565b81146130a057600080fd5b50565b6130ac81612996565b81146130b757600080fd5b50565b6130c3816129e2565b81146130ce57600080fd5b5056fea2646970667358221220f172727c7afa938983a3eea1a4e88034dd23a1fce901407133512456956b8a4b64736f6c63430008010033",
  "immutableReferences": {},
  "source": "// SPDX-License-Identifier: MIT\r\npragma solidity >=0.6.0 <0.9.0;\r\n\r\nimport \"@openzeppelin/contracts/token/ERC721/ERC721.sol\";\r\nimport \"@openzeppelin/contracts/access/Ownable.sol\";\r\n\r\ncontract ERC721Capped is ERC721, Ownable {\r\n\r\n    uint64 _totalMinted;\r\n    bool _isMintable;\r\n    uint256 _mintPrice;\r\n    uint64 _cap;\r\n\r\n    constructor(string memory name_, string memory symbol_, uint64 cap) ERC721 (name_, symbol_) {\r\n        _cap = cap;\r\n    }\r\n\r\n\r\n        \r\n    function getTotalSupply() public view returns (uint64) {\r\n        return _totalMinted;\r\n    }\r\n    \r\n    function getBalance() public view returns (uint256) {\r\n        return address(this).balance;\r\n    }\r\n\r\n    function _createNFT() internal {\r\n        require(_totalMinted <=  _cap);\r\n        _totalMinted++;\r\n        _mint(msg.sender, _totalMinted);\r\n    }\r\n\r\n    function ownerMint() public onlyOwner {\r\n        _createNFT();\r\n    }\r\n\r\n    function publicMint() public payable {\r\n        require(_isMintable && msg.value == _mintPrice);\r\n        _createNFT();\r\n    }\r\n\r\n    function setMintPrice(uint256 mintPrice) public onlyOwner {\r\n        _mintPrice = mintPrice;\r\n    }\r\n\r\n    function openSales(uint256 mintPrice) public onlyOwner {\r\n        _isMintable = true;\r\n        setMintPrice(mintPrice);\r\n    }\r\n\r\n    function closeSales() public onlyOwner {\r\n        _isMintable = false;\r\n    }\r\n\r\n    function withdraw() public payable onlyOwner {\r\n        payable(owner()).transfer(getBalance());\r\n    }\r\n}",
  "sourcePath": "C:\\Users\\Luiz Alvim\\Documents\\truffle-react\\src\\contracts\\ERC721Capped.sol",
  "compiler": {
    "name": "solc",
    "version": "0.8.1+commit.df193b15.Emscripten.clang"
  },
  "schemaVersion": "3.4.7",
  "updatedAt": "2022-05-31T20:18:56.419Z",
  "networkType": "ethereum",
  "devdoc": {
    "kind": "dev",
    "methods": {
      "approve(address,uint256)": {
        "details": "See {IERC721-approve}."
      },
      "balanceOf(address)": {
        "details": "See {IERC721-balanceOf}."
      },
      "getApproved(uint256)": {
        "details": "See {IERC721-getApproved}."
      },
      "isApprovedForAll(address,address)": {
        "details": "See {IERC721-isApprovedForAll}."
      },
      "name()": {
        "details": "See {IERC721Metadata-name}."
      },
      "owner()": {
        "details": "Returns the address of the current owner."
      },
      "ownerOf(uint256)": {
        "details": "See {IERC721-ownerOf}."
      },
      "renounceOwnership()": {
        "details": "Leaves the contract without owner. It will not be possible to call `onlyOwner` functions anymore. Can only be called by the current owner. NOTE: Renouncing ownership will leave the contract without an owner, thereby removing any functionality that is only available to the owner."
      },
      "safeTransferFrom(address,address,uint256)": {
        "details": "See {IERC721-safeTransferFrom}."
      },
      "safeTransferFrom(address,address,uint256,bytes)": {
        "details": "See {IERC721-safeTransferFrom}."
      },
      "setApprovalForAll(address,bool)": {
        "details": "See {IERC721-setApprovalForAll}."
      },
      "supportsInterface(bytes4)": {
        "details": "See {IERC165-supportsInterface}."
      },
      "symbol()": {
        "details": "See {IERC721Metadata-symbol}."
      },
      "tokenURI(uint256)": {
        "details": "See {IERC721Metadata-tokenURI}."
      },
      "transferFrom(address,address,uint256)": {
        "details": "See {IERC721-transferFrom}."
      },
      "transferOwnership(address)": {
        "details": "Transfers ownership of the contract to a new account (`newOwner`). Can only be called by the current owner."
      }
    },
    "version": 1
  },
  "userdoc": {
    "kind": "user",
    "methods": {},
    "version": 1
  }
}